:100000000C94A21B0C94D31B0C94D31B0C94D31BE9
:100010000C94D31B0C94D31B0C94D31B0C94D31BA8
:100020000C94D31B0C94D31B0C94D31B0C94D31B98
:100030000C94D31B0C94D31B0C94D31B0C94D31B88
:100040000C94D31B0C94ABBB0C94D31B0C94D31B00
:100050000C94D31B0C94D31B0C941ACA0C949F843D
:100060000C94D31B0C94A73E0C949D3E0C94D31B74
:100070000C94D31B0C94D31B0C94D31B0C94D31B48
:100080000C94D31B0C94D31B0C94D31B0C94D31B38
:100090000C94D31B0C94D31B0C94D31B0C94D31B28
:1000A0000C94D31B0C94D31B0C94D31B0C94D31B18
:1000B0000C94D31B0C94D31B0C94D31B0C94D31B08
:1000C0000C94D31B0C94D31B0C94D31B0C94D31BF8
:1000D0000C94D31B0C94D31B0C94D31B0C94D31BE8
:1000E0000C94D31B4F965296419645964B96899603
:1000F00056965A966096649668966E96729676961E
:1001000089967C96809684969B9AA09AA59AAF9A97
:10011000B99A329BC39ACB9AD39ADD9AE79AF19A0D
:10012000009B0A9B329B149B1E9B289B71B471B44D
:10013000FDB34FB562B462B44FB54FB5FDB34FB523
:100140004FB56AB46AB462B44FB5FDB34FB54FB59D
:100150004FB571B471B471B459C7C8C501C695C75C
:1001600001C601C601C601C601C601C601C601C657
:1001700001C601C601C601C601C601C601C601C647
:1001800001C601C601C601C601C601C601C601C637
:1001900001C601C68FC701C601C601C601C601C698
:1001A00001C601C601C668C701C601C601C601C6AF
:1001B00001C601C601C601C601C601C6ACC7FEC55F
:1001C000084AD73B3BCE016E84BCBFFDC12F3D6CBE
:1001D00074319ABD56833DDA3D00C77F11BED9E424
:1001E000BB4C3E916BAAAABE000000803F05A84C04
:1001F000CDB2D44EB93836A9020C50B991868808D0
:100200003CA6AAAA2ABE000000803F004E414E49EB
:100210004E495459494E46CDCCCC3D0AD7233C17C4
:10022000B7D13877CC2B329595E6241FB14F0A0011
:100230000020410000C84200401C4620BCBE4CCA01
:100240001B0E5AAEC59D74434F4D4D554E4943410B
:1002500054494F4E0044525952554E004552524F48
:10026000525300494E464F004543484F0020746F9B
:100270006F206C6F6E6720657874727573696F6E2E
:100280002070726576656E7465640A0020636F6C19
:100290006420657874727573696F6E20707265760C
:1002A000656E7465640A0047322F473320626164CB
:1002B00020706172616D65746572730A00536C65BC
:1002C00065702E2E2E00436C69636B20746F207254
:1002D0006573756D652E2E2E004E6F206D6F7665E1
:1002E0002E00456E642066696C65206C6973740A23
:1002F00000426567696E2066696C65206C6973747D
:100300000A00286E6F2066696C6529004375727259
:10031000656E742066696C653A20005344207072E3
:10032000696E74696E67206279746520004E6F741F
:10033000205344207072696E74696E670A002E0A39
:100340000044656C6574696F6E206661696C6564F4
:100350002C2046696C653A200046696C652064650E
:100360006C657465643A002569730025696D202504
:100370006973002569682025696D2025697300254A
:100380006964202569682025696D20256973002529
:10039000697920256964202569682025696D2025F3
:1003A0006973005072696E742074696D653A20003B
:1003B00020573A004520436F6F6C696E672E2E2ED2
:1003C00000452048656174696E672E2E2E006F66A9
:1003D0006600680263025C025502470244454255CA
:1003E000473A004D3131332053006F6B00434E4389
:1003F000204F46462E004348414D4245525F5445EA
:100400004D5045524154555245004D4F54494F4E61
:100410005F4D4F44455300544845524D414C5F5049
:10042000524F54454354494F4E004155544F524545
:10043000504F52545F53445F5354415455530050EE
:10044000524F4D50545F535550504F525400454DEC
:10045000455247454E43595F504152534552004320
:100460004153455F4C494748545F425249474854BD
:100470004E45535300544F47474C455F4C494748FE
:10048000545300534F4654574152455F504F5745C0
:1004900052004255494C445F50455243454E54002A
:1004A0004C4556454C494E475F44415441005A5FC4
:1004B00050524F4245004155544F4C4556454C0013
:1004C0005052494E545F4A4F420050524F47524596
:1004D0005353004155544F5245504F52545F544569
:1004E0004D5000564F4C554D4554524943004545DB
:1004F00050524F4D0042494E4152595F46494C457A
:100500005F5452414E534645520053455249414C67
:100510005F584F4E5F584F4646004649524D57412F
:1005200052455F4E414D453A4D61726C696E204DAA
:100530006F64206279204461726B556E69784F73E5
:1005400020284769746875622920534F55524345E6
:100550005F434F44455F55524C3A68747470733A28
:100560002F2F6769746875622E636F6D2F4D6172EE
:100570006C696E4669726D776172652F4D61726C40
:10058000696E2050524F544F434F4C5F5645525363
:10059000494F4E3A312E30204D414348494E455F38
:1005A000545950453A434E432045585452554445BA
:1005B000525F434F554E543A3120555549443A63A2
:1005C000656465326132662D343161322D343734E1
:1005D000382D396231322D63353563363266333624
:1005E0003766660A002F2F20004D31343520533CEA
:1005F000696E6465783E206F7574206F6620726145
:100600006E67652028302D31290A002054002052C1
:1006100000416363656C65726174696F6E3A205066
:10062000003F4A206F7574206F662072616E6765A7
:100630002028302E303120746F20302E33290A00CC
:100640002059323A002058323A004475616C2045F6
:100650006E6473746F702041646A7573746D656E37
:100660007420286D6D293A20004F4646004F4E00F9
:10067000205A00205900580020204D61783A20006F
:10068000205A00205900580020204D696E3A200061
:10069000536F667420656E6473746F70733A2000D4
:1006A00020466C6F773A200050726F7465637465F2
:1006B000642050696E0A00496E76616C6964206539
:1006C000787472756465720A0020643A0020693A91
:1006D0000020703A0064697300656E0043290A00C7
:1006E00061626C656420286D696E2074656D702090
:1006F00000436F6C64206578747275646573206163
:1007000072652000486F6D65202573257325732061
:100710006669727374002066697273740A00486FA8
:100720006D6520004F666673657473206170706C30
:10073000696564004572723A20546F6F2066617279
:100740002100546F6F206661722066726F6D207297
:1007500065666572656E636520706F696E740A0008
:10076000454550524F4D204F4B0A00496E76616C03
:1007700069642065787472756465720A00457272E6
:100780006F722077726974696E6720746F204545B7
:1007900050524F4D210A0036372603023C3D380E99
:1007A0000F2E303E121A1C1824221E4646460844BC
:1007B0000AFF43090001627573793A20706175730D
:1007C000656420666F7220696E7075740A006275C8
:1007D00073793A2070617573656420666F72207555
:1007E0007365720A00627573793A2070726F63657F
:1007F0007373696E670A004B494C4C2063617573D3
:100800006564206279204B494C4C20627574746F8A
:100810006E2F70696E0A004B494C4C2063617573F2
:10082000656420627920746F6F206D75636820693C
:100830006E6163746976652074696D65202D20632F
:10084000757272656E7420636F6D6D616E643A20AF
:1008500000506C6561736520726573657400505259
:10086000494E5445522048414C544544004B494C54
:100870004C45442E20005072696E74657220686188
:100880006C7465642E206B696C6C28292063616C24
:100890006C6564210A006563686F3A004572726F87
:1008A000723A00204500205A00205900204D39326C
:1008B00020580020496E76616C69642065787472F6
:1008C00075646572200024F4D43050C38E20C2A217
:1008D0004017828B7011127A910D816CD90AA86130
:1008E000E108C7586607615143061E4B5D05C145C7
:1008F000A7041A411104093D9803713931034036A8
:10090000DB0265339102D4305402802E1D02632C29
:10091000EE01752AC501B028A001102781018F259D
:1009200064012B244B01E0223401AC211F018D20F6
:100930000D01801FFC00841EED00971DDF00B81C18
:10094000D200E61BC600201BBC00641AB200B2191C
:10095000A8000A19A0006A189900D1179100401741
:100960008B00B516840031167E00B31579003A1558
:100970007300C7146F0058146A00EE1366008813E2
:10098000630025135E00C7125B006C12570015123E
:100990005400C111510070114F0021114B00D610AD
:1009A00049008D1047004610440002104200C00F5D
:1009B0004000800F3E00420F3C00060F3B00CB0E74
:1009C0003800930E37005C0E3500270E3400F30D0F
:1009D0003200C10D3100900D3000600D2E00320D3F
:1009E0002D00050D2C00D90C2B00AE0C2900850C18
:1009F00029005C0C2700350C27000E0C2600E80BA4
:100A00002400C40B2400A00B23007D0B23005A0BF1
:100A10002100390B2100180B2000F80A1F00D90A09
:100A20001E00BB0A1E009D0A1D00800A1D00630AED
:100A30001C00470A1B002C0A1B00110A1A00F709A8
:100A40001A00DD091900C4091900AB09190092093F
:100A500017007B091800630917004C0916003609B6
:100A60001600200916000A091500F5081500E0080F
:100A70001400CC081400B8081400A408140090084E
:100A800013007D0812006B08130058081200460876
:100A90001200340811002308110012081100010887
:100AA0001100F0071000E0071000D0071000C00789
:100AB0001000B0070F00A107100091070E00830778
:100AC0000F0074070F0065070E0057070E00490757
:100AD0000E003B070D002E070E0020070D00130728
:100AE0000D0006070D00F9060C00ED060D00E006EE
:100AF0000C00D4060C00C8060C00BC060C00B006A6
:100B00000C00A4060B0099060C008D060B00820653
:100B10000B0077060B006C060B0061060A005706F7
:100B20000B004C060A0042060A0038060A002E0690
:100B30000A0024060A001A060A0010060900070621
:100B40000A00FD050900F4050900EB050900E205AE
:100B50000900D9050900D0050900C7050900BE052F
:100B60000900B5050800AD050800A50509009C05AC
:100B70000800940508008C050800840508007C0521
:100B80000800740508006C050700650508005D0590
:100B90000700560508004E050700470507004005F9
:100BA000080038050700310507002A05070023055E
:100BB00007001C050600160507000F0507000805BD
:100BC000060002050700FB040600F5040700EE041A
:100BD0000600E8040600E2040700DB040600D50472
:100BE0000600CF040600C9040600C3040600BD04C5
:100BF0000600B7040600B1040500AC040600A60414
:100C00000600A00405009B0406009504050090045E
:100C100006008A04050085040500800406007A04A5
:100C2000050075040500700405006B0405006604EA
:100C30000500610405005C0405005704050052042A
:100C400005004D04050048040500430405003E046A
:100C500004003A04050035040500300404002C04A7
:100C6000050027040400230405001E0404001A04E0
:100C7000040016040500110404000D040400090416
:100C800005000404040000040400FC030400F8034D
:100C90000400F4030400F0030400EC030400E80380
:100CA0000400E4030400E0030400DC030400D803B0
:100CB0000400D4030400D0030400CC030400C803E0
:100CC0000300C503030024F404D9201BC40C5C0EEC
:100CD0009804C4095F0265077101F405F900FB047B
:100CE000B30048048700C10369005803550003039B
:100CF0004500BE023A008402310053022A00290254
:100D0000250004022000E4011C00C8011900AF0105
:100D10001700980114008401130071011000610193
:100D2000100051010E0043010D0036010B002B0194
:100D30000B0020010B00150109000C010900030143
:100D40000800FB000800F3000800EB000700E400C7
:100D50000600DE000600D8000600D2000600CC0027
:100D60000500C7000500C2000500BD000400B90071
:100D70000400B5000400B1000400AD000400A900A7
:100D80000400A5000300A20003009F0004009B00D4
:100D900003009800030095000200930003009000F8
:100DA00003008D0002008B00030088000200860013
:100DB000020084000300810002007F0002007D0029
:100DC00002007B000200790002007700010076003B
:100DD00002007400020072000100710002006F0046
:100DE00002006D0001006C0002006A000100690051
:100DF0000200670001006600010065000100640058
:100E000002006200010061000100600001005F005B
:100E100002005D0001005C0001005B0001005A005F
:100E20000100590001005800010057000100560060
:100E30000100550001005400010053000000530060
:100E400001005200010051000100500001004F005C
:100E500001004E0000004E0001004D0001004C005A
:100E600001004B0000004B0001004A000100490056
:100E70000100480000004800010047000100460052
:100E8000000046000100450000004500010044004C
:100E90000100430000004300010042000000420046
:100EA00001004100000041000100400001003F003E
:100EB00000003F0001003E0000003E0001003D0038
:100EC00000003D0001003C0000003C0000003C0030
:100ED00001003B0000003B0001003A0000003A0026
:100EE000010039000000390001003800000038001E
:100EF0000000380001003700000037000100360014
:100F0000000036000000360001003500000035000A
:100F100000003500010034000000340000003400FF
:100F200001003300000033000000330001003200F4
:100F300000003200000032000100310000003100EA
:100F400000003100010030000000300000003000DF
:100F500001002F0000002F0000002F0000002F00D4
:100F600001002E0000002E0000002E0001002D00C8
:100F700000002D0000002D0000002D0001002C00BD
:100F800000002C0000002C0000002C0001002B00B1
:100F900000002B0000002B0000002B0001002A00A5
:100FA00000002A0000002A0000002A000100290099
:100FB000000029000000290000002900000029008D
:100FC0000100280000002800000028000000280080
:100FD0000000280001002700000027000000270073
:100FE0000000270000002700010026000000260066
:100FF0000000260000002600000026000100250059
:10100000000025000000250000002500000025004C
:10101000000025000100240000002400000024003E
:101020000000240000002400010023000000230031
:101030000000230000002300000023000000230024
:101040000000230001002200000022000000220016
:101050000000220000002200000022000100210008
:1010600000002100000021000000210000002100FC
:1010700000002100000021000100200000002000ED
:1010800000002000000020000000200000002000E0
:10109000000020000000200001001F0000001F00D1
:1010A00000001F0000001F0000001F0000001F00C4
:1010B00000001F0001001E0000001E0000001E00B6
:1010C00000001E00000039300000332500008719A1
:1010D0000000B00F0000DB080000BD040000740237
:1010E00000003F01000000004843000048430000AA
:1010F0004843000000000000000000000000290A32
:10110000002062797465733B20637263200053652D
:101110007474696E67732053746F7265642028005D
:10112000454550524F4D206461746173697A652062
:101130006572726F722E0A00290A00206279746546
:10114000733B2063726320002073746F72656420A8
:1011500073657474696E67732072657472696576FD
:101160006564202800202863616C63756C61746578
:101170006429210A0020213D2000454550524F4D51
:1011800020435243206D69736D61746368202D2084
:101190002873746F7265642920002053697A653A58
:1011A0002000496E6465783A2000204D61726C69B8
:1011B0006E3D563634290A00454550524F4D207633
:1011C000657273696F6E206D69736D6174636820F9
:1011D00028454550524F4D3D0048617264636F642D
:1011E00065642044656661756C7420536574746928
:1011F0006E6773204C6F616465640A0090010000A3
:101200009001000064000000D00700000000F042E0
:101210000000F0420000F0410000C84100004843D7
:1012200000004843000048440000484343616E6E9C
:101230006F74206F70656E20737562646972200030
:1012400053442063617264206F6B0A006F70656E97
:10125000526F6F74206661696C65640A00766F6C0A
:10126000756D652E696E6974206661696C65640AC6
:1012700000534420696E6974206661696C0A004DF0
:101280003234004D32332025730057726974696E11
:101290006720746F2066696C653A20002E0A006F23
:1012A00070656E206661696C65642C2046696C65AA
:1012B0003A20002E0A006F70656E206661696C65C9
:1012C000642C2046696C653A200046696C65207381
:1012D000656C65637465640A002053697A653A2019
:1012E0000046696C65206F70656E65643A20006623
:1012F0007265736800646F696E67002066696C656B
:101300003A20004E6F772000454E442053554252FC
:101310004F5554494E450A002220706F7300222019
:10132000706172656E743A2200535542524F5554A3
:10133000494E452043414C4C207461726765743AB4
:101340002200747279696E6720746F2063616C6C1F
:10135000207375622D67636F64652066696C6573C1
:10136000207769746820746F6F206D616E79206CCE
:101370006576656C732E204D4158206C6576656CE2
:101380002069733A310A0045787472756465720099
:101390004D6F7665205A004D6F76652059004D6F70
:1013A00076652058004F6666004F6E00536F667476
:1013B00020456E6473746F7073004D6F74696F6E47
:1013C0000044697361626C65207374657070657246
:1013D00073004D3834004175746F20686F6D65007F
:1013E000473238004D6F76652061786973004D6132
:1013F000696E003F005374617274207072696E747C
:10140000200043616E63656C005072696E74004326
:10141000616E6E6F7420656E7465722073756264A0
:1014200069723A2000022E2E004D61696E005072E2
:10143000656865617420504C410050726568656153
:10144000742041425300436F6F6C646F776E0046A7
:10145000616E2073706565640046616E207370650F
:101460006564004E6F7A7A6C65004E6F7A7A6C65AF
:10147000004D61696E007C3C3E5E2B3D3F2F5B5D05
:101480003B2C2A225C0020440020490020204D33C0
:1014900030312050005049442073657474696E6780
:1014A000733A0A0020460020420020480020204DC8
:1014B0003134352053004D6174657269616C206868
:1014C000656174757020706172616D6574657273A9
:1014D0003A0A0020590020580020204D36363600A8
:1014E000456E6473746F702061646A7573746D65A2
:1014F0006E743A0A00205A0020590020204D3230E4
:1015000036205800486F6D65206F66667365743AC3
:101510000A00204A0020540020530020204D323081
:1015200035204200204A3C6A756E635F6465763EF2
:1015300000416476616E6365643A20423C6D696E79
:101540005F7365676D656E745F74696D655F7573F4
:101550003E20533C6D696E5F6665656472617465BB
:101560003E20543C6D696E5F74726176656C5F6697
:10157000656564726174653E00205400205200204D
:10158000204D323034205000416363656C657261D8
:1015900074696F6E2028756E6974732F7332293ADF
:1015A00020503C7072696E745F616363656C3E20AD
:1015B000523C726574726163745F616363656C3E13
:1015C00020543C74726176656C5F616363656C3E48
:1015D0000A00204500205A0020590020204D3230BA
:1015E000312058004D6178696D756D2041636365E8
:1015F0006C65726174696F6E2028756E6974732FE3
:101600007332293A0A00204500205A002059002050
:10161000204D3230332058004D6178696D756D2052
:101620006665656472617465732028756E6974738C
:101630002F73293A0A005374657073207065722005
:10164000756E69743A0A0020204D323030204430E3
:101650000A0020204D32303020440020446973615C
:10166000626C65640A0046696C616D656E74207316
:10167000657474696E67733A0020204D31343920E7
:1016800043203B20556E69747320696E2043656C5E
:10169000736975730A0020286D6D29002020473278
:1016A00031202020203B20556E69747320696E2004
:1016B0006D6D006F70656E00545249474745524545
:1016C00044003A20007A5F6D696E0079325F6D697F
:1016D0006E00795F6D696E0078325F6D696E0078BB
:1016E0005F6D696E005265706F7274696E67206518
:1016F0006E6473746F70207374617475730A002064
:101700005A3A0020593A0020436F756E7420583AB7
:101710000020453A00205A3A0020593A00583A0031
:10172000486F6D696E67206661696C6564000000D2
:10173000000000000000000000000000F041000078
:10174000F041000040405761726E696E673A204870
:101750006F6D696E672042756D702044697669739C
:101760006F72203C20310A000404050000E04000B4
:1017700000E04000004040000048430000484300B3
:10178000004843FFFFFF00000001000000010000CF
:101790008000555555000000400033333300AAAA9D
:1017A0002A004992240000002000C7711C0099996A
:1017B0001900D1451700555515003BB113002449B8
:1017C000120011111100000010000F0F0F00E3387C
:1017D0000E0043790D00CCCC0C00C3300C00E8A205
:1017E0000B0064210B00AAAA0A00703D0A009DD8D4
:1017F0000900427B090092240900DCD30800888894
:1018000008001042080000000800F0C107008787A8
:10181000070075500700711C07003EEB0600A1BCD5
:1018200006006990060066660600703E06006118B4
:10183000060017F4050074D105005BB00500B290F6
:101840000500627205005555050078390500B81E7F
:101850000500050505004EEC040087D40400A1BD79
:10186000040090A7040049920400C17D0400EE69C1
:101870000400C7560400444404005C3204000821FC
:10188000040041100400000004003FF00300F8E0F1
:10189000030026D20300C3C30300CCB503003AA85B
:1018A00003000A9B0300388E0300C08103009F756C
:1018B0000300D0690300505E03001D530300344849
:1018C0000300913D03003333030016290300381F42
:1018D000030097150300300C0300030303000BFA09
:1018E000020049F10200BAE802005CE002002DD8D3
:1018F00002002DD0020059C80200B0C0020031B968
:101900000200DAB10200AAAA0200A0A30200BC9C55
:101910000200FA9502005C8F0200DF8802008282DA
:101920000200457C02002776020027700200436A0D
:1019300002007C640200D05E02003F590200C853DE
:101940000200220A00556E6B6E6F776E20636F6D1A
:101950006D616E643A20220020746F6F206C6F6E90
:101960006720657874727573696F6E207072657622
:10197000656E7465640A0020636F6C64206578741A
:10198000727573696F6E2070726576656E746564CA
:101990000A00FFFFFFFFFFFFE007FF00FFFFFFFF61
:1019A000FFFFFFFFFFFFFFF803FFFFE039FFFFFF2F
:1019B000FFFFFFFFFFFFFF00FFFFFFFC0C7FFFFFAC
:1019C000FFFFFFFFFFFFF807FFFFFFFE061FFFFF00
:1019D000FFFFFFFFFFFF807FFFFFFFFF030FFFFF02
:1019E000FFFFFFFFFFFE03FFFFFFFFFF81873FFFBA
:1019F000FFFFFFFFFFF80FFFFFFFFFFF81C30FFF98
:101A0000FFFFFFFFFFE03FFFFFFFFFFF80C187FFFA
:101A1000FFFFFFFFFF80FFFFFFFFFFFF80E0C3FF2F
:101A2000FFFFFFFFFF03FFFFFFFFFFFF80E0E1FF7E
:101A3000FFFFFFFFFC0FFFFFFFFFFFFF00E060CF96
:101A4000FFFFFFFFF81FFFFFFFFFFFFF00E070CF6A
:101A5000FFFFFFFFF07FFFFFFFFFFFFE00E070E7EB
:101A6000FFFFFFFFE0FFFFFFFFFFFFFC00E07073E1
:101A7000FFFFFFFFC0FFFFFFFFFFFFFC01E07071F2
:101A8000FFFFFFFF81FFFFFFFFFFFFF803C0707143
:101A9000FFFFFFFF03FFFFFFFFFFFFF007C07030F6
:101AA000FFFFFFFF07FFFFFFFFFFFFE00780703032
:101AB000FFFFFFFE0FFFFFFFFFFFFFC00F80703033
:101AC000FFFFFFFE1FFFFFFFFFFFFF801F007030C3
:101AD0007FFFFFFC1FFFFFFFFFFFFF003F00703095
:101AE0007FFFFFFC3FFFFFFFFFFFFF007E00F030A6
:101AF0007FFFFFFC3FFFFFFFFFFFFE00FC00E03029
:101B00007FFFFFFC3FFFFFFFFFFFFC00F800E0202E
:101B10007FFFFFFC7FFFFF8000FFFC01F000E00083
:101B20007FFFFFFC7FFFF000001FF803E001E000F3
:101B30007FFFFFFC7FFF01FF8007F007C001F0007F
:101B40007FFFFFFC7FFFFFFFFE03F00780000E001A
:101B50007FFFFFFC7FFFFFFFFFC0E00F00000100E1
:101B60007FFFFFFC7FFFE003FFF0201F00000080ED
:101B70007FFFFFFC7E08FFFF3FFC001E01FFC080CF
:101B8000FFFFFFFE7EFFFFFFE7FE001C3FFFE0C000
:101B9000FFFFFFFE777FFFFFFEFF803FFFFFE0E0DC
:101BA000FFFFFFFF73BFFFFFFF9FE03FFFFFC0E1AD
:101BB000FFFFFFFFF1DFFFFFFFEBF03FFFFFC0E3A1
:101BC000FFFFFFFFF1EFFFFFFFD1F83FFFFFC0F383
:101BD000FFFFFFFFF1F7FFFFFFB1F81FFFFF813F9E
:101BE000FFFFFFFFE0F9FFFFFEE19C1FFFFF013F4A
:101BF000FFFFFFFFE0FE7FFFF3C18C1FFFFE033FEF
:101C0000FFFFFFFFC1FFC3FC3FC0061FFFFC063FF5
:101C1000FFFFFFFF81FFFFFFFF00070E0FE00E3FFA
:101C2000FFFFFFFF81FFFFFFFF00030F80003C3F2E
:101C3000FFFFFFFF03FFFFFFFE180187F800FC3FD7
:101C4000FFFFFFFF81FFFFFF3C7C60C7FFFFFC3F02
:101C5000FFFFFFFFE0FFFFFC7BFCFCE3FFFFF83F23
:101C6000FFFFFFFFF87FFFF8FFEFFFF3FF07F83FED
:101C7000FFFFFFFFFC1C00F0FBCFF3FFF800E03F8D
:101C8000FFFFFFFFFE0003E0E38FE39FE000407FE4
:101C9000FFFFFFFFFF001FC1830FE38EFF8000FFE8
:101CA000FFFFFFFFFFC03F810307C18671C001FF37
:101CB000FFFFFFFFFFC07F000307810200E007FF77
:101CC000FFFFFFFFFFE0FF000203000200E00FFF45
:101CD000FFFFFFFFFFF0FE100000000000E03FFFED
:101CE000FFFFFFFFFFF9FE3000000001F0C0FFFF23
:101CF000FFFFFFFFFFFFFE3000002001E183FFFF39
:101D0000FFFFFFFFFFFFFE3820007021E1FFFFFF14
:101D1000FFFFFFFFFFFFFE3C30107061C3FFFFFFBE
:101D2000FFFFFFFFFFFFFE3C3818F863C7FFFFFF10
:101D3000FFFFFFFFFFFFFE3E3C38F8E38FFFFFFF92
:101D4000FFFFFFFFFFFFFF3F1E38F8C71FFFFFFF2A
:101D5000FFFFFFFFFFFFFF1F1E3CF8CF3FFFFFFF0E
:101D6000FFFFFFFFFFFFFF9F9F3CF9CE7FFFFFFFBD
:101D7000FFFFFFFFFFFFFFFFCF3DF9FCFFFFFFFF6E
:101D8000FFFFFFFFFFFFFFFFFF3FFFF9FFFFFFFF29
:101D9000FFFFFFFFFFFFFFF87FFFFC1FFFFFFFFFBD
:101DA000FFFFFFFFFFC07FFFF01FFFFFFFFFFFFFF1
:101DB000FFFFFF007FFFC01FFFFFFFFFFFFFFFFFD1
:101DC000FC007FFF001FFFFFFFFFFFFFFFFFF00092
:101DD0007FFC001FFFFFFFFFFFFFFFFFC0007FE052
:101DE000001FFFFFFFFFFFFFFFFF00007FC0001F7E
:101DF000FFFFFFFFFFFFFFFE00007F00001FFFFF50
:101E0000FFFFFFFFFFFFF0007FFE001FFFFFFFFF50
:101E10008003FFFFF0007FFE001FFE0001FF0000B7
:101E2000FFFFF0007FFE001FFC0000FFE0007FFFCF
:101E3000F0007FFE001FFC000FFFE0007FFFF000BE
:101E40007FFE001FF8003FFFE0003FFF10007FFE15
:101E5000001FE0007FFFE0000FFE10007FFE001F6C
:101E60008003FFFFE0000FFC10007FFE001E000754
:101E7000FFFFE00007F810007FFE0018001FFFFFC3
:101E8000E00003F010007FFE0018007FFFFFE0007D
:101E900003F010007FFE001800FFFFFFE00000E0ED
:101EA00010007FFE001800FFFFFFE0000040100060
:101EB0007FFE0018003FFFFFE001000010007FFEE2
:101EC0000018001FFFFFE001000030007FFE001837
:101ED000000FFFFFE001C00070007FFE001B000349
:101EE000FFFFE001E000F0007FFE001FC000FFFFE9
:101EF000E001F001F0007FFE001FE0007FFFE00145
:101F0000F803F0007FFE001FF0001FFFE001F80F54
:101F1000F0007FFE001FFC0007FFE001FC0FF00057
:101F20007FFE001FFF0003FF00003E1FF0007FFE4A
:101F3000001FFFC0004000001FFFF0007FFE001FD9
:101F4000FFE0007FFFFFFFFFF8007FFE003FFFFF85
:101F5000FFFFFFFFFFFFFE007FFE00FFFFFFFFFF11
:101F6000FFFFFFFFFF807FFE03FFFFFFFFFFFFFF7D
:101F7000FFFFFFC07FFE03FFFFFFFFFFFFFFFFFF2D
:101F8000FFE07FFE0FFFFFFFFFFFFFFFFFFFFFF8F8
:101F90007FFE3FFFFFFFFFFFFFFFFFFFFFFE7FFE14
:101FA0007FFFFFFFFFFF2020506C616E6E65724265
:101FB000756666657242797465733A2000204672D0
:101FC0006565204D656D6F72793A2000436F6D70C5
:101FD000696C65643A204A756C20323220323031A7
:101FE000390A00207C20417574686F723A202844B9
:101FF00061726B556E69784F73290A00323031393E
:102000002D30372D313900204C61737420557064A8
:10201000617465643A20004D6F64206279204461E8
:10202000726B556E69784F730A004D61726C696E00
:102030000020536F66747761726520526573657412
:102040000A00205761746368646F67205265736586
:10205000740A002042726F776E206F75742052658B
:102060007365740A002045787465726E616C205245
:10207000657365740A00506F77657255700A007356
:10208000746172740A006175746F25632E67006550
:1020900072726F722077726974696E6720746F2034
:1020A00066696C650A00446F6E6520736176696EBF
:1020B000672066696C652E0A004D323900456E64F2
:1020C00073746F707320256320256320256320259A
:1020D0006300205A3A0020593A0020583A00656EB1
:1020E0006473746F7073206869743A20004D3432E1
:1020F0003800496E697469616C697A65204545509C
:10210000524F4D0046696C616D656E740054656D8B
:1021100070657261747572650053746570732F6DAC
:102120006D004A65726B00416363656C6572617432
:10213000696F6E0056656C6F6369747900536574DE
:1021400020686F6D65206F66667365747300436FFA
:102150006E66696775726174696F6E0053746F7231
:10216000652073657474696E6773004E6F7A7A6C5C
:1021700065004E6F7A7A6C650046616E20737065FB
:1021800065640046616E20737065656400436F6E20
:1021900066696775726174696F6E004C6F61642067
:1021A00073657474696E677300526573746F7265DA
:1021B000206661696C736166650053746F72652097
:1021C00073657474696E67730050726568656174D5
:1021D0002041425320636F6E6600507265686561EE
:1021E0007420504C4120636F6E6600416476616ECE
:1021F0006365642053657474696E6773004D61692B
:102200006E004D32310A4D3131372053637269709F
:102210007420446F6E652121004D32320A4D3131F8
:10222000372053637269707420446F6E65212100FA
:10223000473932205830205930205A300A4D313138
:10224000372053637269707420446F6E65212100DA
:10225000473238205A0A4D31313720536372697042
:102260007420446F6E652121004732382058205970
:102270000A4D3131372053637269707420446F6E98
:1022800065212100486F6D65205A204178697300EF
:10229000526573657420416C6C20436F6F72646982
:1022A0006E6174657300556E4D6F756E7420536466
:1022B0004361726400486F6D6520582659004D6F68
:1022C000756E7420536443617264004D61696E00E1
:1022D000416D6178204500416D6178204500416D78
:1022E0006178205A00416D6178205A00416D617813
:1022F000205900416D6178205900416D6178205866
:1023000000416D6178205800412D74726176656CD2
:1023100000412D74726176656C00412D7265747296
:1023200061637400412D726574726163740041636E
:1023300063656C00416363656C00416476616E6344
:1023400065642053657474696E6773004A756E63C3
:1023500074696F6E20446576004A756E6374696FA8
:102360006E2044657600416476616E636564205337
:10237000657474696E6773004573746570732F6D4F
:102380006D004573746570732F6D6D005A737465BD
:1023900070732F6D6D005A73746570732F6D6D00BF
:1023A0005973746570732F6D6D0059737465707314
:1023B0002F6D6D005873746570732F6D6D005873B9
:1023C000746570732F6D6D00416476616E63656432
:1023D0002053657474696E677300496E697469612E
:1023E0006C697A6520454550524F4D0041647661D5
:1023F0006E6365642053657474696E6773004D6124
:10240000782054656D703A20323735004D696E2062
:1024100054656D703A20350054303A2044756D6D26
:10242000792032005053553A20434E430050726F8A
:10243000746F636F6C3A20312E3000426175643ADC
:1024400020323530303030004578747275646572F2
:10245000733A20310070722E756E69786F73406721
:102460006D61696C2E636F6D00434E4300323031F5
:10247000392D30372D3139004D6F64206279204479
:1024800061726B556E69784F7300546865726D693F
:1024900073746F727300426F61726420496E666F6D
:1024A000005072696E74657220496E666F004D61EE
:1024B000696E005072696E742061626F7274656437
:1024C0000053746F70207072696E74004D61696E94
:1024D000004D3235004D3234004E6F20534420639E
:1024E000617264005072696E742066726F6D205361
:1024F000440041626F7574205072696E7465720099
:10250000437573746F6D20436F6D6D616E647300FE
:10251000436F6E66696775726174696F6E005465AA
:102520006D7065726174757265004D6F74696F6E60
:1025300000526573756D65207072696E7400476135
:102540006D650054756E650053746F70207072690C
:102550006E74005061757365207072696E74004905
:102560006E666F2073637265656E004D6F766520D1
:1025700058004D6F76652059004D6F7665205A00E2
:10258000457874727564657200000021002400278C
:10259000002A002D00300033000101000004010773
:1025A000010A0100002200250028002B002E003126
:1025B00000340002010000050108010B01000020A9
:1025C000002300260029002C002F0032000001000B
:1025D00000030106010901050505050705080808AE
:1025E00008020202020A0A080804040404010101A4
:1025F00001010101010303030303030303040707AC
:10260000070C0C0C0C0C0C0C0C0202020206060649
:1026100006060606060B0B0B0B0B0B0B0B01021031
:1026200020200808102040102040800201020108EC
:10263000040201010204081020408080402010089C
:1026400004020180040201804020100804020108F5
:102650000402010102040810204080010204081055
:1026600020408000000A0B02090C0D0E080703042D
:102670000100000000000000000000000000000059
:102680000000000000000000000000000000001238
:102690001110000000000000000000000000000019
:1026A0000000000000000000004D6F766520302E15
:1026B000316D6D004D6F766520316D6D004D6F761B
:1026C000652031306D6D004D6F76652061786973DE
:1026D00000486F74656E6420746F6F20636F6C6464
:1026E000004578747275646572004D6F7665205A86
:1026F000004D6F76652059004D6F76652058004675
:102700006C6F7700466C6F770046616E2073706562
:1027100065640046616E207370656564004E6F7A73
:102720007A6C65004E6F7A7A6C65005370656564EB
:10273000005370656564004D61696E0025753A252A
:1027400030327500253032753A25303275002575E6
:102750006420253032753A25303275002020202043
:102760002020200020202020001FE020102010200A
:10277000101020102020102010303008400480035A
:10278000001FE03FF03FF03FF01FE01FE03FF03F51
:10279000F03FF00FC0078003003FFFF038007030BB
:1027A000FC3020FC102078102030102C00D02E316E
:1027B000D02F7BD02F7BD02E31D02C00D0203010CA
:1027C00020781020FC1030FC303800703FFFF03FC4
:1027D000FFF03800703186302387102787902F87CD
:1027E000D02F03D020301020781020781020301007
:1027F0002F03D02F87D0278790238710318630383A
:1028000000703FFFF000000000007FFFFFFFFC4072
:1028100080C3FFFC5EB6DFFFFC5EB6C7FFFC40B6C0
:10282000DFFFFC7FFFC3FFFC000000000046696C77
:102830002E204469612E0046696C2E204469612E69
:10284000004F6666004F6E004520696E206D6D5E1C
:102850003300416476616E63656420536574746906
:102860006E677300200820466163740020082046CC
:10287000616374002008204D6178002008204D61BC
:1028800078002008204D696E002008204D696E00F8
:102890004F6666004F6E004175746F74656D700011
:1028A000416476616E6365642053657474696E6714
:1028B00073005654726176206D696E0056547261D1
:1028C00076206D696E00566D696E00566D696E00FA
:1028D000566D6178204500566D6178204500566D33
:1028E0006178205A00566D6178205A00566D6178E3
:1028F000205900566D6178205900566D6178205836
:1029000000566D6178205800416476616E6365649D
:102910002053657474696E67730023646566696E1D
:10292000652044454641554C545F004B6420004BA4
:102930006920004B702000504944204175746F7429
:10294000756E652066696E697368656421205075CF
:102950007420746865206C617374204B702C204B5C
:102960006920616E64204B6420636F6E7374616EC6
:1029700074732066726F6D2062656C6F7720696E6C
:10298000746F20436F6E66696775726174696F6EEC
:102990002E680A00504944204175746F74756E6545
:1029A000206661696C6564212074696D656F75745A
:1029B0000A00453120544845524D414C2052554E55
:1029C0004157415900546865726D616C2052756EB3
:1029D000617761790045312048656174696E6720CF
:1029E0006661696C65640048656174696E6720663C
:1029F00061696C656400504944204175746F747559
:102A00006E65206661696C6564212054656D706532
:102A100072617475726520746F6F20686967680AE7
:102A200000204B643A2000204B693A2000204B7074
:102A30003A20000A20436C61737369632050494453
:102A4000200A002054753A2000204B753A200020BF
:102A50006D61783A2000206D696E3A200020643A5A
:102A6000200020626961733A20005049442041757A
:102A7000746F74756E652073746172740A005049C6
:102A800044204175746F74756E65206661696C656C
:102A900064212054656D706572617475726520746F
:102AA0006F6F20686967680A005049442041757457
:102AB0006F74756E65206661696C65642120426182
:102AC00064206578747275646572206E756D6265D8
:102AD000720A004572723A207574663820666F6E0D
:102AE00074206E6F7420696E697469616C697A65AF
:102AF000642E004572723A207574663820666F6ED7
:102B000074206E6F7420696E697469616C697A658E
:102B1000642E004572723A207574663820666F6EB6
:102B200074206E6F7420696E697469616C697A656E
:102B3000642E0000060C00FE07022603BC017FFE87
:102B400008FE08FE05080806000040F0C8888898BE
:102B50007810050808060000C0F88888888888F87A
:102B60000505050600012030F8302005080806009C
:102B7000002070F820202020E00509090600FF2031
:102B800070A8A8B888887020050606060001E08CA9
:102B9000EA8C8A0A0509090600FFF8A8888888884F
:102BA00088A8F8050A0A0600FE205050505088A850
:102BB000A8887003030306000340A040FFFFFFFF47
:102BC000FFFFFFFFFFFFFFFFFFFFFFFFFFFFFFFF15
:102BD000FFFF0000000605FF0107070602008080D6
:102BE0008080800080030303060105A0A0A00506E5
:102BF0000606000050F85050F8500509090600FF7D
:102C00002070A8A07028A87020050707060000C83B
:102C1000C8102040989805070706000040A0A04073
:102C2000A890680103030602058080800309090655
:102C300001FF2040408080804040200309090601B8
:102C4000FF8040402020204040800507070600000C
:102C500020A8702070A8200505050600012020F896
:102C600020200203030601FFC04080050101060089
:102C700003F8020202060100C0C0050707060000B3
:102C80000810102040408005070706000070889853
:102C9000A8C8887003070706010040C040404040B4
:102CA000E0050707060000708808102040F80507B7
:102CB00007060000F80810300888700507070600AE
:102CC0000010305090F81010050707060000F8803B
:102CD000F008088870050707060000304080F0887B
:102CE0008870050707060000F8081010202020054E
:102CF0000707060000708888708888700507070637
:102D0000000070888878081060020505060100C080
:102D1000C000C0C00206060601FFC0C000C040805F
:102D2000030505060101204080402005030306003D
:102D300002F800F8030505060101804020408005E7
:102D400007070600007088102020002005070706EE
:102D500000007088B8A8B8807005070706000070EA
:102D60008888F8888888050707060000F0484870BA
:102D70004848F0050707060000708880808088704A
:102D8000050707060000F04848484848F0050707CF
:102D9000060000F88080F08080F805070706000034
:102DA000F88080F08080800507070600007088802A
:102DB00080988870050707060000888888F888884A
:102DC00088030707060100E04040404040E0050757
:102DD0000706000038101010109060050707060065
:102DE000008890A0C0A0908805070706000080809A
:102DF00080808080F805070706000088D8A88888AA
:102E000088880507070600008888C8A8988888056C
:102E100007070600007088888888887005070706FD
:102E20000000F08888F080808005070706000070A9
:102E3000888888A89068050707060000F08888F051
:102E4000A0908805070706000070888070088870C9
:102E5000050707060000F82020202020200507078E
:102E600006000088888888888870050707060000A3
:102E700088888888505020050707060000888888C1
:102E800088A8A850050707060000888850205088A9
:102E900088050707060000888850202020200507A5
:102EA00007060000F80810204080F8030909060111
:102EB000FFE080808080808080E0050707060000BA
:102EC000804040201010080309090601FFE020207F
:102ED0002020202020E0050303060005205088055F
:102EE00001010600FEF803030306010580402005EA
:102EF00005050600007008788878050707060000B9
:102F00008080F0888888F0050505060000708080C4
:102F10008870050707060000080878888888780503
:102F200005050600007088F08070050707060000A0
:102F3000304840E04040400507070600FE708888A2
:102F4000887808700507070600008080F088888868
:102F5000880307070601004000C0404040E0040924
:102F6000090601FE100030101010109060050707D0
:102F700006000080808890E0908803070706010023
:102F8000C04040404040E0050505060000D0A8A82C
:102F9000A8A8050505060000B0C8888888050505AD
:102FA00006000070888888700507070600FEF08814
:102FB0008888F080800507070600FE788888887872
:102FC0000808050505060000B0C8808080050505D5
:102FD00006000078807008F0050707060000202032
:102FE000F8202020180505050600008888889868C4
:102FF000050505060000888888502005050506009F
:10300000008888A8A85005050506000088502050B3
:10301000880507070600FE8888885020408005053F
:1030200005060000F8102040F80309090601FF20FA
:1030300040404080404040200109090602FF808056
:10304000808080808080800309090601FF804040E5
:1030500040204040408005030306000248A890FF3E
:1030600053656C65637420776F726B737061636511
:1030700020004361703A00220A00656E7175657523
:1030800065696E672022006F6B00526573656E6420
:103090003A200053544F505045442E20005072693E
:1030A0006E7465722073746F7070656420647565EA
:1030B00020746F206572726F72732E2046697820BB
:1030C000746865206572726F7220616E642075731A
:1030D00065204D39393920746F20726573746172BF
:1030E000742E202854656D70657261747572652048
:1030F00069732072657365742E205365742069743A
:103100002061667465722072657374617274696E91
:1031100067290A004E6F20436865636B73756D20E5
:1031200077697468206C696E65206E756D62657272
:103130002C204C617374204C696E653A20004E6FF0
:1031400020436865636B73756D2077697468206CC4
:10315000696E65206E756D6265722C204C617374AA
:10316000204C696E653A2000636865636B73756D0A
:10317000206D69736D617463682C204C61737420D9
:103180004C696E653A20004C696E65204E756D6223
:103190006572206973206E6F74204C617374204CCB
:1031A000696E65204E756D6265722B312C204C6105
:1031B0007374204C696E653A20004D313130004DFA
:1031C00033310053442072656164206572726F72FE
:1031D0000A00446F6E65207072696E74696E6720B4
:1031E00066696C650A002E0A006F70656E20666164
:1031F000696C65642C2046696C653A2000000021EA
:1032000010422063308440A550C660E770088129D1
:10321000914AA16BB18CC1ADD1CEE1EFF131121069
:103220000273325222B5529442F772D66239931821
:10323000837BB35AA3BDD39CC3FFF3DEE362244375
:103240003420040114E664C774A44485546AA54B71
:10325000B528850995EEE5CFF5ACC58DD553367209
:103260002611163006D776F6669556B4465BB77AC1
:10327000A719973887DFF7FEE79DD7BCC7C448E595
:10328000588668A7784008611802282338CCC9ED11
:10329000D98EE9AFF9488969990AA92BB9F55AD4A9
:1032A0004AB77A966A711A500A333A122AFDDBDC61
:1032B000CBBFFB9EEB799B588B3BBB1AABA66C87B5
:1032C0007CE44CC55C222C033C600C411CAEED8FB1
:1032D000FDECCDCDDD2AAD0BBD688D499D977EB649
:1032E0006ED55EF44E133E322E511E700E9FFFBE01
:1032F000EFDDDFFCCF1BBF3AAF599F788F8891A9D4
:1033000081CAB1EBA10CD12DC14EF16FE18010A1AA
:1033100000C230E3200450254046706760B98398AE
:1033200093FBA3DAB33DC31CD37FE35EF3B10290FA
:1033300012F322D2323542145277625672EAB5CB7A
:10334000A5A89589856EF54FE52CD50DC5E234C34A
:1033500024A01481046674476424540544DBA7FA4E
:10336000B79987B8975FE77EF71DC73CD7D326F29A
:10337000369106B01657667676154634564CD96D9A
:10338000C90EF92FE9C899E9898AB9ABA9445865EA
:103390004806782768C018E1088238A3287DCB5CEE
:1033A000DB3FEB1EFBF98BD89BBBAB9ABB754A543A
:1033B0005A376A167AF10AD01AB32A923A2EFD0FBA
:1033C000ED6CDD4DCDAABD8BADE89DC98D267C078A
:1033D0006C645C454CA23C832CE01CC10C1FEF3E8E
:1033E000FF5DCF7CDF9BAFBABFD98FF89F176E36DA
:1033F0007E554E745E932EB23ED10EF01EFFFDFC44
:10340000FAF8F6F4F2F0EEECEAE9E7E5E3E1E0DE03
:10341000DCDAD9D7D5D4D2D0CFCDCBCAC8C7C5C3B3
:10342000C2C0BFBDBCBAB9B7B6B4B3B2B0AFADAC31
:10343000AAA9A8A6A5A4A2A1A09E9D9C9A99989786
:1034400095949392908F8E8D8B8A898887868483BA
:103450008281807F7E7D7B7A7978777675747372CE
:1034600071706F6E6D6C6B6A6968676665646362C4
:1034700061605F5E5D5C5B5A5958585756555453AE
:10348000525150504F4E4D4C4B4A4A494847464680
:10349000454443424241403F3E3E3D3C3B3B3A393E
:1034A000383837363535343332323130302F2E2EEE
:1034B0002D2C2B2B2A292928272726252524232391
:1034C00022212120201F1E1E1D1C1C1B1B1A191926
:1034D0001818171616151514131312121111100FB0
:1034E0000F0E0E0D0D0C0C0B0A0A09090808070730
:1034F0000606050504040303020201000047414DCE
:1035000045204F564552001000AA00F03FAA006225
:103510006564002C2073797374656D2073746F700B
:1035200070656421204865617465725F49443A2082
:1035300000453120544845524D414C2052554E4192
:1035400057415900546865726D616C2052756E6107
:103550007761790045312048656174696E6720663E
:1035600061696C65640048656174696E67206661B5
:10357000696C656400453120544845524D414C20EA
:1035800052554E4157415900546865726D616C2027
:1035900052756E6177617900202D20496E76616CDD
:1035A0006964206578747275646572206E756D62E9
:1035B000657220210A004531204572723A204D4142
:1035C0005854454D50004D415854454D502074724B
:1035D00069676765726564004531204572723A20FB
:1035E0004D494E54454D50004D494E54454D502087
:1035F00074726967676572656400202F0020403A25
:10360000000009121B242D363F48415A536C657E39
:103610007719100B023D342F265158434A757C67A9
:103620006E323B2029161F040D7A7368615E574C79
:10363000452B2239300F061D14636A7178474E55A9
:103640005C646D767F4049525B2C253E3708011A39
:10365000137D746F6659504B42353C272E11180369
:103660000A565F444D727B60691E170C053A332879
:10367000214F465D546B627970070E151C232A3169
:10368000384148535A656C777E09001B122D243F40
:103690003658514A437C756E671019020B343D262B
:1036A0002F737A6168575E454C3B3229201F160DF7
:1036B000046A6378714E475C55222B3039060F142B
:1036C0001D252C373E0108131A6D647F7649405B37
:1036D000523C352E2718110A03747D666F505942EB
:1036E0004B171E050C333A21285F564D447B7269F7
:1036F000600E071C152A233831464F545D626B70EB
:1037000079436172642072656D6F76656400436110
:10371000726420696E73657274656400434E432061
:1037200052656164792E005072696E74696E672EFD
:103730002E2E005072696E7420706175736564007E
:103740004EDC58D411241FBECFEFD1E2DEBFCDBF77
:1037500000E00CBF13E0A0E0B2E0EEE5F4ED01E024
:103760000BBF02C007900D92A835B107D9F725E12C
:10377000A8E5B3E001C01D92A930B207E1F71BE153
:10378000C1EADBE100E006C021970109802FFE01BC
:103790000E948CE9C03AD10780E00807A9F70E948F
:1037A00072D40C941EEA0C9400002F923F924F9218
:1037B0005F926F927F928F929F92AF92BF92CF92C1
:1037C000DF92EF92FF920F931F93CF93DF93CDB7CA
:1037D000DEB7C455D1090FB6F894DEBF0FBECDBF1A
:1037E00021E020936A038091CA0D8D3411F40C946A
:1037F000FE24843511F40C945432873411F00C9467
:103800006B322090C80D3090C90D26E3221631048A
:1038100009F4CFC73CF544E0241631044CF452E0DF
:10382000251631040CF025C137FE59C00C94FA243A
:1038300085E12816310411F40C946D323CF4A4E0B7
:103840002A16310409F42DC60C94FA24BCE12B1677
:10385000310409F464C6E5E32E16310409F47FC788
:103860000C94FA24FBE32F16310409F4B6C7BCF418
:1038700038E32316310409F4A6C70CF49FC759E3B3
:103880002516310409F4A4C78AE32816310411F07F
:103890000C94FA2480E00E9424B60C946D329AE5D0
:1038A0002916310409F49FC774F4B0E52B163104CE
:1038B00011F00C94FA248FEF9FEF90933B028093CA
:1038C0003A020C946D32EBE52E16310409F48FC7E1
:1038D000FCE52F16310409F48FC70C94FA2480916B
:1038E0005802882311F40C946D320E947C3480912C
:1038F0000E02882321F083E095E00E945D6D8091A7
:10390000340B83FD7DC0C0900F05D0901005E09072
:103910001105F09012052091480D3091490D40910C
:103920004A0D50914B0DC701B6010E9449E2882310
:1039300009F466C080916A0581111FC060916F050E
:103940007091700580917105909172050E94D9E780
:1039500020912C0230912D026217730774F4C092EB
:10396000480DD092490DE0924A0DF0924B0D0E9405
:103970008E398CE892E00E946C3980900F0590900F
:103980001005A0901105B09012052091480D3091BE
:10399000490D40914A0D50914B0DC501B4010E9453
:1039A00094E66B017C0120E030E0A9010E94BBE8B5
:1039B00087FF04C0F7FAF094F7F8F09420912802FA
:1039C0003091290240912A0250912B02C701B60181
:1039D0000E94AEE220E030E048E453E40E94BBE8FD
:1039E000181674F48092480D9092490DA0924A0DD9
:1039F000B0924B0D0E948E398DE692E00E946C3998
:103A00006091370270913802072E000C880B990BD9
:103A10000E944FE220910002309101024091020287
:103A2000509103020E94AEE22AE037ED43E25CE3EC
:103A30000E94AEE269837A838B839C83C12CD12C54
:103A400076018E010F5F1F4F2FE035E04BE055E010
:103A500067E075E083E095E00E948B8280E1E3E01F
:103A6000F5E0ACE3BDE001900D928A95E1F70C948E
:103A70006D3280915802882311F40C946D320E94AB
:103A80007C3482E50E947034882309F432C10E949C
:103A9000F4336B017C0120E030E0A9010E9449E28F
:103AA000882309F4F6C440903C0D50903D0D609081
:103AB0003E0D70903F0D2091400D3091410D409191
:103AC000420D5091430D28A339A34AA35BA38091D3
:103AD000030590910405A0910505B09106058CA3FE
:103AE0009DA3AEA3BFA32091070530910805409187
:103AF000090550910A0528AB39AB4AAB5BAB9C0179
:103B0000AD01C301B2010E9449E281110DC028A993
:103B100039A94AA95BA968A179A18AA19BA10E94A0
:103B200049E2882309F4B5C411E032E023163104D8
:103B300009F010E020E030E0A901C701B6010E94C1
:103B400049E2881F8827881F181749F080E090E015
:103B5000A0E8BFEB8CAB9DABAEABBFAB08C020E029
:103B600030E040E85FE32CAB3DAB4EAB5FABA30175
:103B700092016CA17DA18EA19FA10E9494E66CA7E9
:103B80007DA78EA79FA728A139A14AA15BA168A9FB
:103B900079A98AA99BA90E9494E668A779A78AA710
:103BA0009BA72CA53DA54EA55FA5CA01B9010E9402
:103BB000AEE24B015C0128A539A54AA55BA5CA0167
:103BC000B9010E94AEE29B01AC01C501B4010E94A3
:103BD00095E60E9400E94B015C019B01AC0160E0AD
:103BE00070E080E89FE30E9471E768AF79AF8AAF29
:103BF0009BAF20E030E040E05FE3C501B4010E94EC
:103C0000AEE24B015C01A7019601C701B6010E941B
:103C1000AEE26B017C01A5019401C501B4010E94D3
:103C2000AEE29B01AC01C701B6010E9494E60E947E
:103C300000E92CA93DA94EA95FA90E94AEE24B0163
:103C40005C0168A579A58AA59BA5905828AD39ADDA
:103C50004AAD5BAD0E94AEE2A50194010E94AEE2C6
:103C60006B017C012CA13DA14EA15FA1C301B2015A
:103C70000E9495E620E030E040E05FE30E94AEE283
:103C80009B01AC01C701B6010E9495E6A301920118
:103C90000E9494E66B017C0128A939A94AA95BA975
:103CA00068A179A18AA19BA10E9495E620E030E05D
:103CB00040E05FE30E94AEE22B013C0128AD39AD4C
:103CC0004AAD5BAD6CA57DA58EA59FA50E94AEE219
:103CD000A50194010E94AEE29B01AC01C301B201B7
:103CE0000E9495E628A139A14AA15BA10E9494E611
:103CF00014C089E40E947034882329F00E94F433B0
:103D00006B017C0103C0C12CD12C76018AE40E9496
:103D100070348823D9F00E94F43368AB79AB8AAB56
:103D20009BAB20E030E0A901C701B6010E9449E247
:103D300081111AC020E030E0A90168A979A98AA9F7
:103D40009BA90E9449E281110FC0A3C320E030E08B
:103D5000A901C701B6010E9449E2882309F499C369
:103D600018AA19AA1AAA1BAAD701C601B05888A373
:103D700099A3AAA3BBA328A939A94AA95BA950580A
:103D80002CA33DA34EA35FA39C01AD01BC01CD01BB
:103D90000E94AEE24B015C012CA13DA14EA15FA1AE
:103DA000CA01B9010E94AEE29B01AC01C501B40198
:103DB0000E9495E60E9400E928966CAF7DAF8EAF19
:103DC0009FAF289780913C0D90913D0DA0913E0DA5
:103DD000B0913F0D8CA79DA7AEA7BFA7A7019601E5
:103DE000BC01CD010E9495E668AF79AF8AAF9BAF69
:103DF0002091400D3091410D4091420D5091430D65
:103E00002CAB3DAB4EAB5FAB28A939A94AA95BA946
:103E10006CA97DA98EA99FA90E9495E62C966CAFEE
:103E20007DAF8EAF9FAF2C978091030590910405D5
:103E3000A0910505B09106058CAF9DAFAEAFBFAFA9
:103E400028AD39AD4AAD5BADBC01CD010E9494E611
:103E50006B017C012091070530910805409109050F
:103E600050910A0524962CAF3DAF4EAF5FAF24971B
:103E70002C962CAD3DAD4EAD5FAD2C9724966CAD20
:103E80007DAD8EAD9FAD24970E9494E64B015C0101
:103E90008091440D9091450DA091460DB091470D34
:103EA00060968CAF9DAFAEAFBFAF60979C01AD0188
:103EB00060910B0570910C0580910D0590910E0598
:103EC0000E9494E668A779A78AA79BA7A7019601F5
:103ED00068A179A18AA19BA10E94AEE22B013C01BD
:103EE000A50194016CA17DA18EA19FA10E94AEE2CB
:103EF0009B01AC01C301B2010E9495E62B013C017C
:103F0000A501940168A179A18AA19BA10E94AEE2BA
:103F10004B015C01A70196016CA17DA18EA19FA11F
:103F20000E94AEE29B01AC01C501B4010E9494E67F
:103F3000A30192010E9408E76B017C0120E030E0C0
:103F4000A9010E9449E287FF0AC02BED3FE049EC3E
:103F500050E4C701B6010E9495E66B017C012BED90
:103F60003FE049EC50E4C701B6010E9471E720E050
:103F700030E040EC51E40E94AEE20E945BE70E9418
:103F8000DEE78B01672B11F401E010E092E02916C7
:103F9000310451F42BED3FE049EC50E4C701B60188
:103FA0000E9494E66B017C0120E030E0A901C7018A
:103FB000B6010E9449E2811124C02CAD3DAD4EAD49
:103FC0005FAD6CA57DA58EA59FA50E9449E28111DC
:103FD00018C024962CAD3DAD4EAD5FAD24976CA9B5
:103FE0007DA98EA99FA90E9449E281110AC008E11A
:103FF00010E0ABEDCA2EAFE0DA2EA9ECEA2EA0E479
:10400000FA2EA701960128966CAD7DAD8EAD9FADC1
:1040100028970E94AEE24B015C0120E030E0A9014C
:1040200068A579A58AA59BA50E9449E28823D9F0B5
:10403000A5019401C501B4010E94AEE24B015C01EF
:1040400028A539A54AA55BA5CA01B9010E94AEE21F
:104050009B01AC01C501B4010E9495E60E9400E9F4
:104060004B015C010DC020E030E0A901C501B401A5
:104070000E94BBE887FF04C0B7FAB094B7F8B094C9
:104080002FE632E143E85AE3C501B4010E9449E258
:1040900087FDF3C14090480D5090490D60904A0D46
:1040A00070904B0D2AE939E949E15EE3C501B4019D
:1040B0000E9471E70E940AE80E94DEE71B01601778
:1040C000710708F41801B10180E090E00E944DE210
:1040D0004B015C019B01AC01C701B6010E9471E775
:1040E0006CA77DA78EA79FA7A501940168A579A5B8
:1040F0008AA59BA50E9471E728966CAF7DAF8EAF15
:104100009FAF2897A301920160910F057091100550
:1041100080911105909112050E9494E6A5019401E9
:104120000E9471E764966CAF7DAF8EAF9FAF6497CE
:104130002CA53DA54EA55FA5CA01B9010E94AEE21E
:1041400020E030E040E05FE30E94AEE29B01AC0182
:1041500060E070E080E89FE30E9494E66CAF7DAF82
:104160008EAF9FAF60962CAD3DAD4EAD5FAD60970D
:1041700029873A874B875C874D865E866F86788A6B
:104180006091370270913802072E000C880B990B52
:104190000E944FE220910002309101024091020200
:1041A000509103020E94AEE22AE037ED43E25CE365
:1041B0000E94AEE26C8F7D8F8E8F9F8F0E949384C2
:1041C0009B01AC0128533F4F4F4F5F4F24962CAFBC
:1041D0003DAF4EAF5FAF249748A059A06AA07BA027
:1041E00041E050E059A748A759E15CAB88A599A5E3
:1041F0008215930508F017C10E9488CC0E94938411
:10420000DC01CB0124962CAD3DAD4EAD5FAD2497C6
:10421000821B930BA40BB50BB7FD10C00E949384B7
:104220009B01AC0128533F4F4F4F5F4F24962CAF5B
:104230003DAF4EAF5FAF24970E944B3A3CA931503F
:104240003CAB3323E9F12CA13DA14EA15FA16CADA4
:104250007DAD8EAD9FAD0E94AEE26B017C019201FF
:10426000A3016CA57DA58EA59FA50E94AEE2A70126
:1042700096010E9495E67B018C019201A3016CAD31
:104280007DAD8EAD9FAD0E94AEE24B015C012CA1D5
:104290003DA14EA15FA16CA57DA58EA59FA50E9405
:1042A000AEE29B01AC01C501B4010E9494E62B0172
:1042B0003C01C701D8018CA39DA3AEA3BFA34FC0EF
:1042C00048A559A5BA0180E090E00E944DE22CA5D6
:1042D0003DA54EA55FA50E94AEE24B015C010E9488
:1042E0006EE76B017C01C501B4010E94F6E84B0149
:1042F0005C01A701960168A179A18AA19BA10E94F6
:10430000AEE22B013C0128A939A94AA95BA9C50144
:10431000B4010E94AEE2A30192010E9495E62B0136
:104320003C01A501940168A179A18AA19BA10E94E9
:10433000AEE24B015C0128A939A94AA95BA9C701D2
:10434000B6010E94AEE29B01AC01C501B4010E941E
:1043500094E66CA37DA38EA39FA359E15CAB92016D
:10436000A30168AD79AD8AAD9BAD0E9495E66983E6
:104370007A838B839C832CA13DA14EA15FA12C96B7
:104380006CAD7DAD8EAD9FAD2C970E9495E66D8393
:104390007E838F83988728962CAD3DAD4EAD5FAD63
:1043A000289769857A858B859C850E9495E6698723
:1043B0007A878B879C8764962CAD3DAD4EAD5FAD03
:1043C00064976D857E858F8598890E9495E66D87B7
:1043D0007E878F87988B80910E02882321F0CE01F3
:1043E00001960E945D6DFAE9CF2EF9E9DF2EF9E121
:1043F000EF2EFEE3FF2E8E01045E1F4F9E01235F12
:104400003F4FAE01475F5F4FBE016B5F7F4FCE01F5
:1044100001960E948B82882331F088A599A5019688
:1044200099A788A7E3CE80E1E3E0F5E0DE011196ED
:1044300001900D928A95E1F7EAE9CE2EE9E9DE2EA8
:10444000E9E1EE2EEEE3FE2E8E01045E1F4F9E018B
:10445000235F3F4FAE01475F5F4FBE016B5F7F4FF2
:10446000CE0101960E948B8280E1FE013196ACE381
:10447000BDE001900D928A95E1F70E9493846093CC
:1044800058037093590380935A0390935B030C94E1
:104490006D320E948B3987EA92E00E946C390C944D
:1044A0006D3280E50E947034882329F00E94B43375
:1044B0006B017C0103C0C12CD12C760183E50E94E5
:1044C0007034882361F00E94F43320E030E04AE742
:1044D00054E40E94AEE20E94DEE76B017C010E9480
:1044E0007CBE80912605811105C060E08DEB92E0D5
:1044F0000E9486D00E949384C60ED71EE81EF91E25
:104500000E949384DC01CB018C199D09AE09BF097F
:10451000B7FD02C00C946D320E944B3AF1CF60E0BF
:104520008FE40E940C35882339F080910205877052
:10453000873011F40C946D320E947CBE8091000291
:1045400090910102A0910202B091030280936D0349
:1045500090936E03A0936F03B09370038091370222
:104560009091380290936C0380936B0384E690E003
:10457000909338028093370281E08093940B0E94DD
:10458000507088E50E942734082F89E50E9427345F
:10459000182F8AE50E942734382E01110AC0111104
:1045A00010C081110C94723211E001E03324339475
:1045B00008C0112331F0882311F40C947232182FA3
:1045C000082F80E1ECE3FDE0A3E0B5E001900D925F
:1045D0008A95E1F782E50E947034882369F00E9491
:1045E000F4332B013C0120E030E0A9010E9449E2B4
:1045F000882309F480C006C0412C512C70EA672E34
:1046000070E4772E011103C0112309F47EC040929B
:104610000B0550920C0560920D0570920E05A301DA
:1046200092016091440D7091450D8091460D9091DD
:10463000470D0E9449E287FF5EC0C090400DD090B8
:10464000410DE090420DF090430D80903C0D909014
:104650003D0DA0903E0DB0903F0DE2E4F7E1859155
:104660009591A591B4918C8F9D8FAE8FBF8F85E56D
:1046700095E5A5E0B3E489839A83AB83BC8340923C
:10468000440D5092450D6092460D7092470DCE013B
:104690004C960E94B76D80923C0D90923D0DA09279
:1046A0003E0DB0923F0DC092400DD092410DE09270
:1046B000420DF092430DCE0101960E94B76DA30109
:1046C00092016091440D7091450D8091460D90913D
:1046D000470D0E94BBE8181664F44092440D5092B6
:1046E000450D6092460D7092470DCE014C960E948A
:1046F000B76D0E947CBE002319F080E00E94146E0A
:10470000112319F081E00E94146E332019F082E029
:104710000E94146E0E94D26D8091930B8093940B33
:1047200080916D0390916E03A0916F03B09170031F
:104730008093000290930102A0930202B0930302BF
:1047400080916B0390916C039093380280933702B1
:1047500083E0809327020E945B700C946D3210916D
:1047600039028FEF80933902E0912405F0912505FD
:10477000309711F40C946D32DF018D91882311F480
:104780000C946D32803211F0FD01F6CFCF012191F2
:104790002032E1F3222311F40C946D32009711F4CE
:1047A0000C946D320E948EB300D8109339020C9491
:1047B0006D3280E00E9424B60C946D3280E00E943D
:1047C00024B60C946D3280E00E9424B60C946D32B5
:1047D00080E00E9424B60C946D328091C70D0E9437
:1047E00024B60C946D32109269030C946D3281E002
:1047F000809369030C946D328091C70D882321F159
:10480000813009F096C066EFE62E64E0F62E10E0E7
:1048100020E030E0A901D7016D917D918D919C91AF
:104820000E9449E2882341F0F7011082118212822E
:104830001382812F0E94976D1F5FF4E0EF0EF11C31
:10484000133031F70C946D3232E6232E32E0332EE2
:1048500046EFE42E44E0F42E2CE33DE039A328A3F8
:104860005AEEC52E54E0D52E00E010E0D1018D9116
:104870001D010E947034882309F44BC00E94F43358
:104880002B013C01133049F0F60120813181428136
:1048900053810E9494E62B013C01A8A1B9A12D915E
:1048A0003D914D915C91C301B2010E9494E64B0190
:1048B0005C012DEB37E346E855EB0E94BBE887FD32
:1048C0000AC02DEB37E346E855E3C501B4010E9469
:1048D00049E21816F4F4133051F44092480D509206
:1048E000490D60924A0D70924B0D01E012C0A50176
:1048F0009401F70160817181828193810E9495E624
:10490000D7016D937D938D939C931397812F0E9474
:10491000976D1F5FB4E0EB0EF11CE8A1F9A134968E
:10492000F9A3E8A3F4E0CF0ED11C143009F09ECF18
:1049300001C000E020913902293060F43CE02303FB
:10494000D0011124AF50BC4FE6EFF4E001900D927E
:104950003A95E1F7002309F449C02091550B3091B5
:10496000560B4091570B5091580B6091480D709128
:10497000490D80914A0D90914B0D0E94AEE20E942C
:10498000C6E86093631170936411809365119093EE
:1049900066119091411180914211981719F00E946F
:1049A0001EBE24C00E947CBE80916F00982F927022
:1049B00081FF05C080916F008D7F80936F004091D3
:1049C000631150916411609165117091661140936B
:1049D000A8145093A9146093AA147093AB1499234C
:1049E00029F080916F00826080936F000E945B705D
:1049F0000C946D320E946A830C946D328091C80DC4
:104A00009091C90D8037910509F40DC70CF0D1C004
:104A10008A32910509F489C40CF07FC08831910570
:104A200009F49CC20CF05EC08231910509F49AC76A
:104A3000ECF497FF02C00C945132823091050CF4D3
:104A4000F8C1419711F00C94513260E089ED92E089
:104A50000E9486D05F9812988A98479880910801A2
:104A6000817080930601A4980C946D328531910574
:104A700009F456C254F5449711F00C94513281EF69
:104A800092E00E946C391092DC0483E291E10E9472
:104A900000648BE1E3E2F1E1DE01119601900D92F9
:104AA0008A95E1F740E050E0BE016F5F7F4F80E004
:104AB00090E00E946B57CE0101960E94EA6682EE5A
:104AC00092E00E946C390C946D328631910509F4A4
:104AD0002BC2479711F00C945132E091C50DF09123
:104AE000C60D2FC28C31910509F4BEC23CF48A3147
:104AF000910509F458C20CF43DC263C28E31910590
:104B000009F4C3C20CF4BAC28F31910509F462C32F
:104B1000809709F419C30C9451328C35910509F42E
:104B200061C734F58135910509F401C78CF48C34E3
:104B3000910509F41DC48D34910509F42EC48B34FC
:104B4000910511F00C9451320E94C3CF0C946D3238
:104B50008335910509F402C70CF4FDC6843591052F
:104B600009F400C78535910509F425C70C94513225
:104B70008B36910509F4D1C664F48936910509F4A0
:104B800078C60CF0ADC68836910509F40AC40C94B9
:104B900051328D36910509F428C40CF43FC68E3687
:104BA000910509F4EAC58F36910509F4F7C50C940F
:104BB00051328C3D910511F40C94C02F0CF0BEC005
:104BC0008139910509F4E0C70CF092C08537910551
:104BD00009F494C70CF075C08237910509F489C7B0
:104BE0000CF426C68337910511F00C9451328AE1FA
:104BF00095E00E946C3960E08AE095E00E9472B511
:104C000060E085EF94E00E9472B561E08EEE94E082
:104C10000E9472B561E083EE94E00E9472B561E09B
:104C200083ED94E00E9472B560E08AEC94E00E940B
:104C300072B561E080EC94E00E9472B560E086EBB2
:104C400094E00E9472B560E08EEA94E00E9472B532
:104C500060E080EA94E00E9472B560E082E994E04E
:104C60000E9472B560E083E894E00E9472B560E053
:104C700085E794E00E9472B560E08FE594E00E94C1
:104C800072B560E08EE494E00E9472B560E08FE35C
:104C900094E00E9472B560E08AE294E00E9472B5EE
:104CA00061E087E194E00E9472B561E08AE094E0FF
:104CB0000E9472B560E086EF93E00E9472B50C949A
:104CC0006D328737910509F454C70CF41FC7883734
:104CD000910509F451C78937910511F00C945132AF
:104CE0001092940B1092930B0E9450700C946D32A2
:104CF0008B3C910509F4F0C774F4883C910509F4E4
:104D000080C7893C910509F4C6C78B39910511F01C
:104D10000C945132C0C58D3C910511F40C94BA2EFF
:104D20000CF4F7C78E3C910511F40C94C82E833D0A
:104D3000910511F40C940C2F0C9451328C3A31E003
:104D4000930711F40C943B318CF58D3251E09507AB
:104D500011F40C947C3094F4823E910511F40C947F
:104D60001F308C32B1E09B0711F40C9467308D3DFD
:104D7000910511F00C9451320C94CB2F8F32E1E05D
:104D80009E0711F40C94353114F40C94F5308039ED
:104D900021E0920711F40C9438318A39914011F0D6
:104DA0000C9451320E94CB380C946D32883F41E014
:104DB000940711F40C942F321CF5853FA1E09A075B
:104DC00011F40C9429324CF4843F914011F00C946E
:104DD00051320E94E04F0C946D32863FF1E09F0704
:104DE00011F40C942C32873F914011F00C94513205
:104DF00061E083E50E940C350E940C710C946D32C9
:104E00008A3932E0930709F4E3C73CF48C309240CE
:104E100011F40C943C320C945132803AA3E09A077E
:104E200009F4C8C1873E934011F40C9444320C94A9
:104E30005132A090C50DB090C60D80E50E9470342F
:104E4000882359F00E94B4336B017C0111E0672B79
:104E5000682B692B31F410E004C010E0C12CD12C78
:104E6000760183E50E947034882311F40C94753226
:104E70000E94F43320E030E04AE754E40E94AEE2BE
:104E80000E94DEE76B017C0111110BC0672B682BC0
:104E9000692B39F4A114B10421F0F501808181114D
:104EA00002C010E001C011E00E947CBE112329F075
:104EB00061E0C5010E94C0D005C060E086EC92E0D0
:104EC0000E9486D083E080936A0381E08093E3149C
:104ED000C114D104E104F104B1F00E949384C60E20
:104EE000D71EE81EF91E0E949384DC01CB018C19A9
:104EF0009D09AE09BF09B7FF0DC08091E314811170
:104F00000C947A3207C08091E314882319F00E9430
:104F10004B3AF9CF0E94E6D01092E3140C946D3214
:104F20000E9447560C946D320E94CF558091DC123E
:104F3000877F8093DC120C946D32803209F41082EA
:104F4000319680818111F9CF40E061E08091C50DFB
:104F50009091C60D0E9404590C946D320E9405B0C8
:104F6000882321F00E94DE550E94C3CF0E94E6D024
:104F70000C946D328091DC1282FF03C08B7F809392
:104F8000DC128091E914813089F782E08093E91482
:104F90000E9493846093E5147093E6148093E71461
:104FA0009093E814E3CF8091DC1283FD02C00C944F
:104FB0006D3283E50E94703481110C947D320C9423
:104FC0006D3283E40E942734882319F18CE093E04A
:104FD0000E946C398091CD10882391F0BE016F5FE3
:104FE0007F4F8AEC90E10E947E668E010F5F1F4F1B
:104FF000D8018D918D01882339F00E946539F8CF51
:1050000082E093E00E946C398AE00E9465390C943A
:105010006D328091DC1282FF21C08BE193E00E940F
:105020006C396091D8127091D9128091DA129091F6
:10503000DB124AE00E94F83C8FE20E9465396091E1
:10504000D4127091D5128091D6129091D7124AE065
:105050000E94F83C0E947A3E0C946D328DE293E0FF
:105060000E946C390C946D3240E060E08091C50D77
:105070009091C60D0E9404590C946D328091DC12FF
:105080008E7F8093DC120C946D328091DC1283FD54
:1050900002C00C946D320E9453838091DC1283FD18
:1050A00002C00C946D326091C50D7091C60DCE0199
:1050B0004C960E943DB98C01009711F40C946D320E
:1050C0006C8D7D8D19821C8222E0AC01CE0101968F
:1050D0000E94D568811102C0F12C14C0CE01019646
:1050E0000E94ABB88823C1F361E0CE0101960E9413
:1050F0006366009789F325EEFC0120831C820E94E1
:105100006D64F82ECE0101960E94EA66B801FF2078
:1051100089F089E593E00E947A398AE00E94653936
:105120001092D8121092D9121092DA121092DB1249
:105130000C946D3281E493E00E947A398EE393E01F
:105140000E946C390C946D328091DC1282FD0E94B9
:105150007CBE8091DC1283FD02C00C946D3260E055
:1051600080E50E940C35182F482F61E08091C50D15
:105170009091C60D0E94045983E50E9470348823E3
:1051800081F00E94C433AB01BC014093D81250930C
:10519000D9126093DA127093DB128AEC90E10E94CC
:1051A00013620E94DE5511110C946D320E94C3CF20
:1051B0000C946D322091C50D3091C60D9091DC128A
:1051C00092609093DC1240E060E0C9010E940459B3
:1051D0000C946D320E9474CF7B018C0120E831E584
:1051E00041E050E00E9437E6C9016DE671E00E949F
:1051F00065E94B015C01C801B70120E13EE040E0F8
:1052000050E00E9437E6CA01B90128E130E040E0F1
:1052100050E00E9437E6762E672EC62ED72E2CE35E
:10522000222E312C412C512CC801B701A201910131
:105230000E9437E6F62EE72ECA01B901A2019101BC
:105240000E9437E6CB018E010F5F1F4F811491043E
:1052500099F0EF92FF927F936F936F927F92BF923C
:10526000AF929F928F928FE893E09F938F931F93BB
:105270000F930E94E3E113C0A114B104B1F0EF92C7
:10528000FF927F936F936F927F92BF92AF928FE75F
:1052900093E09F938F931F930F930E94E3E10FB6C8
:1052A000F894DEBF0FBECDBF30C0CD2879F0EF92AD
:1052B000FF927F936F936F927F9283E793E09F9328
:1052C0008F931F930F930E94E3E1E9CF892B69F03D
:1052D000EF92FF927F936F938BE693E09F938F9370
:1052E0001F930F930E94E3E1DACFEF92FF9287E6DC
:1052F00093E09F938F931F930F930E94E3E10F908E
:105300000F900F900F900F900F9060E0C8010E94D7
:10531000C0D00E948E39B80183EA93E00E947A39A6
:105320008AE00E9465390C946D3283E50E947034E6
:10533000882311F40C946D320E94D433F82E6DE062
:1053400070E080E50E94FB348C0197FF02C00C9452
:105350006D32E82E60E089E40E940C3581110C94D6
:105360008D32802F0E9433D4811183C60C948D32EC
:105370008091E914813011F00C946D3282E08093B9
:10538000E9140E9493846093E5147093E61480936B
:10539000E7149093E8140C946D320E94E5CF0C94BE
:1053A0006D328091340B83FF02C00C946D320E94E9
:1053B000A23D87FF02C00C946D3283E50E947034D9
:1053C000882379F00E94F4330E94D9E78B01CB0146
:1053D0000E94A0CA0635110524F40E94E5CF0E9460
:1053E000E6D00E942EDD0C946D328091340B83FF49
:1053F00002C00C946D320E94A23D29968FAF29976E
:1054000087FF02C00C946D3283E50E94703488A33C
:10541000811106C082E50E947034182F8823C9F1DB
:105420000E94F4330E94D9E7CB010E94A0CA0E94D7
:10543000F43320E030E04AEA52E40E9449E21816D0
:1054400014F40C94A0320E94E5CF0E94E6D0609143
:10545000730570917405072E000C880B990B0E9440
:105460004FE26B017C0180906F0590907005A090D9
:105470007105B0907205A50194010E94BBE8181651
:1054800014F40C94B332B8A1BB2311F40C94A432DD
:1054900011E00E942EDD112311F40C946D3281E095
:1054A0008093360218AA19AA1AAA1BAA1CAE1DAE0E
:1054B0001EAE1FAEE1E02196EFAF21971CA22D9604
:1054C0001FAE2D97FCE32596FFAF25972CE1619643
:1054D0002FAF619736E465963FAF6597C12CD12C0D
:1054E00080E8E82E9FEBF92E812C912C54016091DD
:1054F000730570917405072E000C880B990B0E94A0
:105500004FE2162F072F782E692E9601A7010E94D1
:1055100049E2882321F120916F0530917005409177
:1055200071055091720588A1612F702F811109C0FA
:10553000872D962D0E9449E2881F8827881F8CA3FB
:1055400014C0872D962D0E9449E287FF0DC08091DF
:105550003602882309F4C1C70E94E6D0BEC71C2DBD
:105560000D2D7E2C6F2C01C01CA20E9493846B0118
:105570007C01DC01CB012CAD3DAD4EAD5FAD821B9E
:10558000930BA40BB50BB7FD35C0D701C6018851ED
:105590009C4FAF4FBF4F8CAF9DAFAEAFBFAF299603
:1055A0008FAD29970E94CBC980EB93E00E946C39A4
:1055B00081149104A104B104B9F0D501C401805F44
:1055C000984DAF4FBF4FBC01CD016C197D098E09BD
:1055D0009F0928EE33E040E050E00E9437E6CA0120
:1055E000B9010E947D3D03C08FE30E9465398AE0C6
:1055F0000E9465390E944B3A0E949384609358033D
:105600007093590380935A0390935B0390916F05B5
:105610009CA7A0917005A8A7B0917105BCABE091C3
:105620007205E8AF292F3A2F4B2F5E2F612F702F75
:10563000872D962D0E9494E61B012C0120E030E07E
:10564000A9010E94BBE887FF04C057FA509457F89D
:10565000509481149104A104B104C1F420E030E01D
:1056600040E85FE3C201B1010E9449E287FF1AC02E
:105670002196FFAD219746015701FF2399F020E1C4
:10568000820E27E2921EA11CB11C0CC020E030E06B
:1056900040E450E4C201B1010E94BBE8181614F4C2
:1056A000460157013CA1332309F448C088A999A9B0
:1056B000AAA9BBA9892B8A2B8B2B61F0D701C60124
:1056C00028A939A94AA95BA9821B930BA40BB50B86
:1056D000B7FD34C02CA538A54CA958AD2D966FAD9B
:1056E0002D9725967FAD259761968FAD619765962D
:1056F0009FAD65970E9494E620E030E040EC5FE3C8
:105700000E9449E287FD23CFD701C601805A954107
:10571000AF4FBF4F88AB99ABAAABBBAB9CA52D9647
:105720009FAF2D97A8A52596AFAF2597BCA96196E9
:10573000BFAF6197E8AD6596EFAF65978091360290
:10574000882309F404CF81149104A104B10441F425
:1057500021961FAE2197C12ED02EE72CF62CC7CE56
:10576000F0E1CF1AF7E2DF0AE108F108C818D9081A
:10577000EA08FB08F7FCECCFEACE8EE40E94703416
:10578000882309F4AAC60E94C43360934D0E709317
:105790004E0E80934F0E9093500E9FC683E50E944D
:1057A0002734882329F083E50E9478838093340B83
:1057B0000E948E398CED93E00E946C398091340BFD
:1057C000882349F102EDE02E03E0F02E00E010E026
:1057D00020E08091340B90E0002E02C095958795D3
:1057E0000A94E2F780FF0EC0DD24D394D20E222368
:1057F00019F08CE20E946539F701859194910E941D
:105800006C392D2D0F5F1F4F32E0E30EF11C053078
:105810001105F9F6F9CB8EEC93E0F4CB1092E3147A
:10582000109236025AC680E090E00E94913955C627
:1058300083E50E947034882369F0B6D7282F30E0C2
:105840002D3331051CF48093040247C68CE380930A
:10585000040243C60E948E394091040250E060E089
:1058600070E083EE93E00E94633D8AE00E94653918
:1058700034C60E94A23D182F87FD0AC08AEE93E02D
:105880000E946C39812F0E94CBC98AE00E94653941
:1058900010926A034FC783E50E947034882309F48D
:1058A0001CC682D7182F90E0CD970CF01CE3109304
:1058B00060030E9493846B017C01212F30E0A8EEED
:1058C000B3E00E9485E6C60ED71EE81EF91EC09200
:1058D0005C03D0925D03E0925E03F0925F03FDC52E
:1058E00080E50E9478838111F8C581E4B0D78823D0
:1058F00021F06091590570E002C06FEF70E083E520
:105900000E945FB58F3F910519F010F08FEF90E086
:105910008093590580938A0DE0C580E50E947883C5
:105920008111DBC51092590510928A0DD6C50E94CF
:10593000B0CA0E94E5CF0E9400C00E94233968EEE1
:1059400073E080E090E00E94A73860E08DEE93E085
:105950000E9486D0C2C510926403BFC581E08093C7
:105960006403BBC583E5BCD7882391F03DD720E015
:1059700030E04AE754E40E94AEE20E94DEE7609322
:105980000502709306028093070290930802A5C552
:1059900088E55DD78111EAC589E559D78111E6C54A
:1059A0008AE555D78111E2C585E451D78111DEC55D
:1059B0000E9400C092C583E54AD7882309F48DC5AB
:1059C00013D720E030E04AE754E40E94AEE20E94A0
:1059D000DEE760936503709366038093670390939B
:1059E00068037BC50E94A23D87FD77C59091C10DDC
:1059F00094FD04C09091C30D97FF0AC0B2E6CB2E70
:105A0000B2E0DB2E15E3E12E1BE0F12E10E009C021
:105A10009091C40D937091F7682F81E00E94463EEB
:105A20005CC5D6018D916D015BD7882309F457C001
:105A3000133009F04EC0D8D64B015C0120E030E0B5
:105A400040EA51E40E9449E287FF3AC0A50194016F
:105A50006091550B7091560B8091570B9091580B9C
:105A60000E9471E72B013C019B01AC016091650B29
:105A70007091660B8091670B9091680B0E94AEE26B
:105A80006093650B7093660B8093670B9093680B24
:105A900060914D0570914E0580914F059091500594
:105AA0000E944DE2A30192010E94AEE20E94DEE755
:105AB00060934D0570934E0580934F05909350056C
:105AC0008092550B9092560BA092570BB092580BA8
:105AD00006C08AD6F701648B758B868B978B1F5F08
